{
  "contractName": "StoryTeller",
  "abi": [
    {
      "constant": true,
      "inputs": [],
      "name": "owner",
      "outputs": [
        {
          "name": "",
          "type": "address"
        }
      ],
      "payable": false,
      "stateMutability": "view",
      "type": "function"
    },
    {
      "inputs": [],
      "payable": false,
      "stateMutability": "nonpayable",
      "type": "constructor"
    },
    {
      "constant": false,
      "inputs": [
        {
          "name": "brief",
          "type": "string"
        },
        {
          "name": "fullContent",
          "type": "string"
        }
      ],
      "name": "tellStory",
      "outputs": [],
      "payable": true,
      "stateMutability": "payable",
      "type": "function"
    }
  ],
  "bytecode": "0x608060405234801561001057600080fd5b50336000806101000a81548173ffffffffffffffffffffffffffffffffffffffff021916908373ffffffffffffffffffffffffffffffffffffffff16021790555061019f806100606000396000f30060806040526004361061004c576000357c0100000000000000000000000000000000000000000000000000000000900463ffffffff1680638da5cb5b14610051578063e36d46ad146100a8575b600080fd5b34801561005d57600080fd5b5061006661014a565b604051808273ffffffffffffffffffffffffffffffffffffffff1673ffffffffffffffffffffffffffffffffffffffff16815260200191505060405180910390f35b610148600480360381019080803590602001908201803590602001908080601f0160208091040260200160405190810160405280939291908181526020018383808284378201915050505050509192919290803590602001908201803590602001908080601f016020809104026020016040519081016040528093929190818152602001838380828437820191505050505050919291929050505061016f565b005b6000809054906101000a900473ffffffffffffffffffffffffffffffffffffffff1681565b50505600a165627a7a7230582043de3be0f824121ebfd9ff044a1a342f03bb3b33c7e03d1a4171e791936056be0029",
  "source": "pragma solidity ^0.4.22;\n\n\ncontract StoryTeller {\n  address public owner;\n\n  constructor() {\n    owner = msg.sender;\n  }\n\n  function tellStory(string brief,string fullContent) public payable {\n\n  }\n}\n",
  "sourcePath": "D:\\Projects\\blockchain\\story-on-eth\\contracts\\contracts\\StoryTeller.sol",
  "compiler": {
    "name": "solc",
    "version": "0.4.24+commit.e67f0147.Emscripten.clang"
  },
  "schemaVersion": "2.0.1",
  "updatedAt": "2018-08-11T13:33:09.545Z"
}